{
  "contractName": "Vaccine",
  "abi": [
    {
      "inputs": [],
      "payable": false,
      "stateMutability": "nonpayable",
      "type": "constructor"
    },
    {
      "anonymous": false,
      "inputs": [
        {
          "indexed": false,
          "internalType": "uint256",
          "name": "id",
          "type": "uint256"
        },
        {
          "indexed": false,
          "internalType": "string",
          "name": "name",
          "type": "string"
        },
        {
          "indexed": false,
          "internalType": "string",
          "name": "vtype",
          "type": "string"
        }
      ],
      "name": "RecordCreated",
      "type": "event"
    },
    {
      "constant": true,
      "inputs": [],
      "name": "personCount",
      "outputs": [
        {
          "internalType": "uint256",
          "name": "",
          "type": "uint256"
        }
      ],
      "payable": false,
      "stateMutability": "view",
      "type": "function"
    },
    {
      "constant": true,
      "inputs": [
        {
          "internalType": "uint256",
          "name": "",
          "type": "uint256"
        }
      ],
      "name": "record",
      "outputs": [
        {
          "internalType": "uint256",
          "name": "id",
          "type": "uint256"
        },
        {
          "internalType": "string",
          "name": "name",
          "type": "string"
        },
        {
          "internalType": "string",
          "name": "vtype",
          "type": "string"
        }
      ],
      "payable": false,
      "stateMutability": "view",
      "type": "function"
    },
    {
      "constant": false,
      "inputs": [
        {
          "internalType": "string",
          "name": "_name",
          "type": "string"
        },
        {
          "internalType": "string",
          "name": "_vtype",
          "type": "string"
        }
      ],
      "name": "createPeople",
      "outputs": [],
      "payable": false,
      "stateMutability": "nonpayable",
      "type": "function"
    }
  ],
  "bytecode": "0x60806040526000805534801561001457600080fd5b506100806040518060400160405280600e81526020016d22391710213637b1b5b1b430b4b760911b8152506040518060400160405280601f81526020017f312e205066697a65722c20322e205066697a65722c20332e205066697a65720081525061008560201b60201c565b61029b565b60008054600190810180835560408051606081018252828152602080820188815282840188905293865284815291909420845181559151805192936100d293908501929190910190610200565b50604082015180516100ee916002840191602090910190610200565b509050507febd3c3583e32d5e38e7f6c4e8576298722a54c4388c63e9bd0bd8503b905fb876000548383604051808481526020018060200180602001838103835285818151815260200191508051906020019080838360005b8381101561015f578181015183820152602001610147565b50505050905090810190601f16801561018c5780820380516001836020036101000a031916815260200191505b50838103825284518152845160209182019186019080838360005b838110156101bf5781810151838201526020016101a7565b50505050905090810190601f1680156101ec5780820380516001836020036101000a031916815260200191505b509550505050505060405180910390a15050565b828054600181600116156101000203166002900490600052602060002090601f016020900481019282601f1061024157805160ff191683800117855561026e565b8280016001018555821561026e579182015b8281111561026e578251825591602001919060010190610253565b5061027a92915061027e565b5090565b61029891905b8082111561027a5760008155600101610284565b90565b61061a806102aa6000396000f3fe608060405234801561001057600080fd5b50600436106100415760003560e01c80631e1161b3146100465780632c16cd8a1461017557806378495bf814610277575b600080fd5b6101736004803603604081101561005c57600080fd5b81019060208101813564010000000081111561007757600080fd5b82018360208201111561008957600080fd5b803590602001918460018302840111640100000000831117156100ab57600080fd5b91908080601f01602080910402602001604051908101604052809392919081815260200183838082843760009201919091525092959493602081019350359150506401000000008111156100fe57600080fd5b82018360208201111561011057600080fd5b8035906020019184600183028401116401000000008311171561013257600080fd5b91908080601f016020809104026020016040519081016040528093929190818152602001838380828437600092019190915250929550610291945050505050565b005b6101926004803603602081101561018b57600080fd5b503561040c565b604051808481526020018060200180602001838103835285818151815260200191508051906020019080838360005b838110156101d95781810151838201526020016101c1565b50505050905090810190601f1680156102065780820380516001836020036101000a031916815260200191505b50838103825284518152845160209182019186019080838360005b83811015610239578181015183820152602001610221565b50505050905090810190601f1680156102665780820380516001836020036101000a031916815260200191505b509550505050505060405180910390f35b61027f610544565b60408051918252519081900360200190f35b60008054600190810180835560408051606081018252828152602080820188815282840188905293865284815291909420845181559151805192936102de9390850192919091019061054a565b50604082015180516102fa91600284019160209091019061054a565b509050507febd3c3583e32d5e38e7f6c4e8576298722a54c4388c63e9bd0bd8503b905fb876000548383604051808481526020018060200180602001838103835285818151815260200191508051906020019080838360005b8381101561036b578181015183820152602001610353565b50505050905090810190601f1680156103985780820380516001836020036101000a031916815260200191505b50838103825284518152845160209182019186019080838360005b838110156103cb5781810151838201526020016103b3565b50505050905090810190601f1680156103f85780820380516001836020036101000a031916815260200191505b509550505050505060405180910390a15050565b600160208181526000928352604092839020805481840180548651600296821615610100026000190190911695909504601f810185900485028601850190965285855290949193929091908301828280156104a85780601f1061047d576101008083540402835291602001916104a8565b820191906000526020600020905b81548152906001019060200180831161048b57829003601f168201915b50505060028085018054604080516020601f600019610100600187161502019094169590950492830185900485028101850190915281815295969594509092509083018282801561053a5780601f1061050f5761010080835404028352916020019161053a565b820191906000526020600020905b81548152906001019060200180831161051d57829003601f168201915b5050505050905083565b60005481565b828054600181600116156101000203166002900490600052602060002090601f016020900481019282601f1061058b57805160ff19168380011785556105b8565b828001600101855582156105b8579182015b828111156105b857825182559160200191906001019061059d565b506105c49291506105c8565b5090565b6105e291905b808211156105c457600081556001016105ce565b9056fea265627a7a72315820a88916672b7c21d4ed5082743380f5eb438c03344c090008cb5a3e57b9b5d53664736f6c63430005100032",
  "source": "pragma solidity ^0.5.0;\r\n\r\ncontract Vaccine {\r\n  uint public personCount = 0; //state variable, scope of variable belongs to smart contract\r\n\r\n\r\n  struct People {\r\n    uint id;\r\n    string name;\r\n    string vtype;\r\n  }\r\n\r\n  //access the storage in blockchain\r\n  mapping(uint => People) public record;\r\n\r\n  constructor() public {\r\n    createPeople(\"Dr. Blockchain\", \"1. Pfizer, 2. Pfizer, 3. Pfizer\");\r\n  }\r\n\r\n  function createPeople(string memory _name, string memory _vtype) public {\r\n    personCount++;\r\n    record[personCount] = People(personCount, _name, _vtype);\r\n    emit RecordCreated(personCount, _name, _vtype);\r\n  }\r\n\r\n  event RecordCreated(\r\n    uint id,\r\n    string name,\r\n    string vtype\r\n  );\r\n\r\n\r\n\r\n}\r\n",
  "sourcePath": "C:\\Users\\tndud\\Documents\\eth-app\\contracts\\Vaccine.sol",
  "compiler": {
    "name": "solc",
    "version": "0.5.16+commit.9c3226ce.Emscripten.clang"
  },
  "schemaVersion": "3.4.7",
  "updatedAt": "2022-05-08T19:40:07.794Z",
  "devdoc": {
    "methods": {}
  },
  "userdoc": {
    "methods": {}
  }
}